:100000000C9454010C947C010C947C010C947C01A4
:100010000C947C010C947C010C947C010C947C016C
:100020000C947C010C947C010C947C010C947C015C
:100030000C947C010C947C010C947C010C947C014C
:100040000C945A150C947C010C94CA150C94A415AC
:100050000C947C010C947C010C947C010C947C012C
:100060000C94FC150C947C0100407A10F35A00A00B
:10007000724E18090010A5D4E80000E87648170071
:1000800000E40B54020000CA9A3B000000E1F505B1
:10009000000080969800000040420F000000A086FB
:1000A00001000000102700000000E803000000002D
:1000B0006400000000000A000000000001000000D1
:1000C00000002C76D888DC674F0823DFC1DFAE59EB
:1000D000E1B1B796E5E3E453C63AE651997696E87E
:1000E000E6C28426EB898C9B62ED407C6FFCEFBC02
:1000F0009C9F40F2BAA56FA5F490055A2AF75C932D
:100100006B6CF9676DC11BFCE0E40D47FEF520E662
:10011000B500D0ED902E0300943577050080841E45
:10012000080000204E0A000000C80C333333330FA0
:10013000986E12831141EF8D2114893BE65516CF3D
:10014000FEE6DB18D1844B381BF77C1D901DA4BB49
:10015000E424203284725E228100C9F124ECA1E5FE
:100160003D2758012C01710127018D012201AC01AD
:100170001D01CD011801F20113011A020E01460200
:10018000090176020401AB02FF00E502FA00250333
:10019000F5006B03F000B903EB000E04E6006C04FD
:1001A000E100D404DC004705D700C505D2005106A4
:1001B000CD00EB06C8009507C3005008BE001F091C
:1001C000B900020AB400FB0AAF000D0CAA00380DFA
:1001D000A5007F0EA000E20F9B00631196000213A2
:1001E0009100C0148C009B16870092188200A41AFC
:1001F0007D00CD1C7800091F730053216E00A523DC
:100200006900FA2564004A285F008F2A5A00C22C30
:100210005500DE2E5000DD304B00BB3246007434FA
:10022000410008363C0075373700BB383200DB39F7
:100230002D00D83A2800B43B2300703C1E00113D2D
:100240001900993D14000B3E0F006A3E0A00B93EAA
:100250000500F93E000000000000240027002A00ED
:1002600000000000250028002B00040404040404FE
:100270000404020202020202030303030303010255
:100280000408102040800102040810200102040824
:100290001020000000080002010000030407000015
:1002A0000000000000001B1711241FBECFEFD8E094
:1002B000DEBFCDBF24E0A8E8B2E001C01D92A035AA
:1002C000B207E1F712E0A0E0B1E0ECE2F5E402C031
:1002D00005900D92A838B107D9F711E0C4E5D1E037
:1002E00004C02197FE010E949C20C335D107C9F7A5
:1002F0000E94B0170C9494220C94000091E090930B
:100300003D0380935F0310923E03109260030895B3
:1003100008950895FC01538D448D252F30E0842FDE
:1003200090E0821B930B541710F0CF96089501971D
:100330000895FC01918D828D981761F0A28DAE0F0A
:10034000BF2FB11D5D968C91928D9F5F9F73928F91
:1003500090E008958FEF9FEF0895FC01918D828DBD
:10036000981731F0828DE80FF11D858D90E008958A
:100370008FEF9FEF0895FC01918D228D892F90E0E2
:10038000805C9F4F821B91098F7399270895FC0110
:10039000A48DA80FB92FB11DA35ABF4F2C91848DE6
:1003A00090E001968F739927848FA689B7892C9343
:1003B000A089B1898C91837080648C93938D848D96
:1003C000981306C00288F389E02D80818F7D808399
:1003D0000895EF92FF920F931F93CF93DF93EC0159
:1003E00081E0888F9B8D8C8D98131AC0E889F989DC
:1003F000808185FF15C09FB7F894EE89FF896083DF
:10040000E889F98980818370806480839FBF81E05F
:1004100090E0DF91CF911F910F91FF90EF900895A1
:10042000F62E0B8D10E00F5F1F4F0F731127E02E7C
:100430008C8D8E110CC00FB607FCFACFE889F989B4
:10044000808185FFF5CFCE010E94C701F1CFEB8DF2
:10045000EC0FFD2FF11DE35AFF4FF0829FB7F89488
:100460000B8FEA89FB8980818062CFCFCF93DF93A6
:10047000EC01888D8823B9F0AA89BB89E889F989BC
:100480008C9185FD03C0808186FD0DC00FB607FCF1
:10049000F7CF8C9185FFF2CF808185FFEDCFCE0124
:1004A0000E94C701E9CFDF91CF91089581E693E0E3
:1004B0000E94BB0121E0892B09F420E0822F0895DE
:1004C00080E090E0892B29F00E94560281110C9463
:1004D0000000089590E0FC01EE56FD4F2491FC01D0
:1004E000E258FD4F3491FC01E659FD4FE491EE23B3
:1004F000C9F0222339F0233001F1A8F4213019F199
:10050000223029F1F0E0EE0FFF1FE05AFD4FA591D8
:10051000B4918FB7F894EC91611126C030953E23C9
:100520003C938FBF08952730A9F02830C9F02430BC
:1005300049F7809180008F7D03C0809180008F7784
:1005400080938000DFCF84B58F7784BDDBCF84B507
:100550008F7DFBCF8091B0008F778093B000D2CF9A
:100560008091B0008F7DF9CF3E2BDACFCF93DF9310
:1005700090E0FC01E258FD4F249186599D4FFC010B
:1005800084918823D1F090E0880F991FFC01EA5AEA
:10059000FD4FA591B491FC01E05AFD4FC591D49156
:1005A00061110EC09FB7F8948C91E22FE0958E23D5
:1005B0008C932881E223E8839FBFDF91CF91089538
:1005C0008FB7F894EC91E22BEC938FBFF6CF8E307F
:1005D00008F08E508770806480937C0080917A0050
:1005E000806480937A0080917A0086FDFCCF8091B0
:1005F00078009091790008954F925F926F927F9268
:100600008F929F92AF92BF92CF92DF92EF92FF9222
:100610000F931F93CF93DF9300E110E0D0E0C0E091
:1006200080910A040E94E702C80FD91F01501109E6
:10063000B9F724E030E041E050E0CA01243F310541
:1006400009F478C0B9016E597E4FFB01A591B491B0
:100650004F5F5F4FF9013496CA17DB070CF068C093
:100660000197880F991F880F991FDC01AC59BE4F65
:10067000FD01C590D4908E599E4FFC014591549137
:10068000F901EC59FE4FE590F490FD01A590B4906E
:10069000FB0105911491FC0185909490BE01641BAF
:1006A000750B072E000C880B990B0E94361D2B0131
:1006B0003C01B7016A197B09072E000C880B990BC6
:1006C0000E94361D9B01AC01C301B2010E94951D21
:1006D0002B013C01B80168197909072E000C880B21
:1006E000990B0E94361D9B01AC01C301B2010E940F
:1006F000271F4B015C01B601DD0C880B990B0E9492
:10070000361D9B01AC01C501B4010E94BB1EDF91E7
:10071000CF911F910F91FF90EF90DF90CF90BF90FE
:10072000AF909F908F907F906F905F904F900895C3
:100730009F0183CFE4E5F2E08591949160E070E061
:10074000CB01E5CF3FB7F894809107039091080360
:10075000A0910903B0910A0326B5A89B05C02F3FBD
:1007600019F00196A11DB11D3FBFBA2FA92F982FD7
:100770008827BC01CD01620F711D811D911D42E0D2
:10078000660F771F881F991F4A95D1F708958F929A
:100790009F92AF92BF92CF92DF92EF92FF924B0166
:1007A0005C010E94A2036B017C010E94A2036C19F0
:1007B0007D098E099F09683E734081059105A8F364
:1007C00021E0821A9108A108B10888EEC80E83E0E2
:1007D000D81EE11CF11C81149104A104B10429F775
:1007E000FF90EF90DF90CF90BF90AF909F908F9051
:1007F0000895DC01ED91FC910190F081E02D0994C8
:10080000DB0114964D915C9115976D917C91DC0103
:10081000ED91FC910280F381E02D0994AF92BF929B
:10082000CF92DF92EF92FF920F931F93CF93DF93BC
:100830006C017B018B01040F151FEB015E01AE18EB
:10084000BF08C017D10759F06991D601ED91FC910D
:100850000190F081E02DC6010995892B79F7C5013A
:10086000DF91CF911F910F91FF90EF90DF90CF908C
:10087000BF90AF9008952091D002260F3327331FE9
:1008800021323105ECF420913703FC0190E080E047
:10089000243069F082E00895A091D0022191AC014A
:1008A00040555D4FA40FB52FB11D2C9301968617AF
:1008B00098F38091D002680F6093D00280E0089591
:1008C00081E008951092370381E0809336031092FF
:1008D000110361E082E10E946A0261E083E10E940B
:1008E0006A02E9EBF0E080818E7F808380818D7FDA
:1008F000808388E48093B80085E48093BC000895E9
:10090000CF93DF9391E09093AF028823B9F0C09129
:10091000B800D091BA008091BC008A7B8093BC0063
:1009200060E082E10E946A0260E083E10E946A0264
:100930000E946204D093BA00C093B800DF91CF91B7
:100940000895CF92DF92EF92FF920F931F93CF9370
:10095000DF93D091600381E0D13208F09CC0C09158
:100960005F030E94A2036B017C0180913703811118
:100970006CC082E08093370381E0809336038FEF71
:100980008093350310923403D0933303AFE3B3E085
:10099000E3E1F3E080E0D8138DC010921203809160
:1009A0001203CC0FC82BC093120380911103813026
:1009B00009F084C0109211030E94A2036B017C0114
:1009C000809112038093BB008091390390913A0388
:1009D000A0913B03B0913C03892B8A2B8B2BA1F078
:1009E0000E94A2030091390310913A0320913B0326
:1009F00030913C036C197D098E099F090617170772
:100A00002807390708F442C08091BC0083FDD8CF85
:100A100085EC8093BC000E94A2036B017C01809155
:100A20003703823009F44CC0809135038F3F09F4BD
:100A300069C080913503803209F466C08091350326
:100A4000803309F463C084E026C08091390390911B
:100A50003A03A0913B03B0913C03892B8A2B8B2B4B
:100A600009F483CF0E94A2030091390310913A0345
:100A700020913B0330913C036C197D098E099F093D
:100A8000061717072807390708F06FCF809138033A
:100A90000E94800485E010923E0310926003109241
:100AA0003D03DF91CF911F910F91FF90EF90DF9069
:100AB000CF9008959D9191938F5F6DCF85EEA9CFD3
:100AC0008091390390913A03A0913B03B0913C038C
:100AD000892B8A2B8B2B09F4A2CF0E94A2030091B1
:100AE000390310913A0320913B0330913C036C1978
:100AF0007D098E099F09061717072807390708F08F
:100B00008ECFC4CF80E0C7CF82E0C5CF83E0C3CF14
:100B10000895E091100380910F03E81730F4F0E09E
:100B2000E157FD4F808190E008958FEF9FEF08958A
:100B30009091100380910F032FEF3FEF981748F427
:100B4000E92FF0E0E157FD4F208130E09F5F909367
:100B50001003C901089580910F0390911003891B20
:100B6000990B0895CF92DF92EF92FF920F931F930C
:100B7000CF93DF937C01CB018A0120913D03222397
:100B800089F0EB016B01C40ED51ECC15DD0569F0B3
:100B90006991D701ED91FC910190F081E02DC701A1
:100BA0000995F3CF642F0E943B04C801DF91CF91D8
:100BB0001F910F91FF90EF90DF90CF900895CF930A
:100BC000DF931F92CDB7DEB7698320913D032223C7
:100BD000F9F020916003203258F021E030E0FC0170
:100BE0003383228390E080E00F90DF91CF910895CE
:100BF00080913E03E82FF0E0E15CFC4F9981908307
:100C00008F5F80933E038093600381E090E0ECCFA0
:100C100061E0CE0101960E943B04F7CF682F8EEF72
:100C200093E00C94DF05CF93C62FFC018185806291
:100C30000E947E0189E00E940E068C2F0E940E0603
:100C40000E94A1048111FCCFCF910895CF93C62FAC
:100C5000FC01818580620E947E0183E10E940E0674
:100C60008C2F0E940E060E94A1048111FCCFCF910F
:100C70000895EF92FF920F931F93CF93DF938C0110
:100C8000C62FE42EFC0186858130B1F5D58564FD43
:100C9000D061C5FDD860C6FDD460C7FDD260EE202E
:100CA00039F1D06A6D2FC8010E9426066D2F6F7D25
:100CB000C8010E942606F8016585C0FD6061C1FD7E
:100CC0006860C2FD6460C3FD6260C62FEE2091F0D3
:100CD000C06A6C2FC8010E9426066C2F6F7DC80168
:100CE000DF91CF911F910F91FF90EF900C9426060A
:100CF000D062D8CFC062EDCFD0E0BE0175956795C8
:100D00006877442399F16660F8018581F0E18F9F4F
:100D1000C00111248078F82EF62A6F2DC8010E9498
:100D200013066F2D6B7FC8010E94130683E0CC0F62
:100D3000DD1F8A95E1F7C877EE20D1F0C660F80193
:100D40008581F0E18F9FC00111248078C82B6C2F22
:100D5000C8010E9413066C2F6B7FC801DF91CF91F1
:100D60001F910F91FF90EF900C9413066460CCCF0D
:100D7000C460E5CFFC012385222319F041E00E94E5
:100D8000390681E090E00895FC012385222341F09B
:100D900040E061E00E9439068BE39FE10197F1F7A3
:100DA00008950895FC01A685B785109741F0ED914F
:100DB000FC9111970190F081E02DCD01099480897B
:100DC0009189009739F0DC01ED91FC910190F0815F
:100DD000E02DF4CF90E080E008950895089590E02C
:100DE00080E00895089524E231E0DC012D933C93E6
:100DF00080918D0290918E02009739F0DC01ED9187
:100E0000FC910480F581E02D099510928E021092DC
:100E10008D0208952FB7F894609103037091040335
:100E200080910503909106032FBF089508950F93B5
:100E30001F93CF93FC0186819781A085B1858C019A
:100E40009D010095109520953095428953896489BC
:100E50007589C1E0041715072607370708F0C0E0B9
:100E6000C5830417150726073707A0F44150510919
:100E700061097109401B510B620B730B4287538749
:100E80006487758786879787A08BB18BCF911F91D9
:100E90000F910895480F591F6A1F7B1FEFCF809154
:100EA0008D0290918E02009739F0DC01ED91FC915A
:100EB0000190F081E02D099460E070E0CB0108958D
:100EC00080E890E00895FC01248935892F3F32079E
:100ED00051F061E0FC0186899789019709F460E08F
:100EE000822F0C946A020895CF92DF92EF92FF92C4
:100EF000FC01248935892F3F320729F0FC016689DE
:100F0000822F0E946A020E94A2036B017C010E9450
:100F1000A2036C197D098E099F0962307105810554
:100F20009105A8F3FF90EF90DF90CF900895EF9296
:100F3000FF920F931F93CF93DF938C017B01C1E04E
:100F4000D0E0D801ED91FC910190F081E02DC80135
:100F500009958C179D0734F0CE15DF0571F4F80163
:100F6000D18FC08FD80158968D919C91DF91CF91F0
:100F70001F910F91FF90EF900895CC0FDD1FE1CFEF
:100F80000895CF93DF93EC0160E08E810E946A02A6
:100F900061E08E810E946A0260E08E810E946A0296
:100FA0008BE891E00197F1F7DF91CF910895CF920F
:100FB000DF92EF92FF920F931F93CF93DF936C0119
:100FC0007C0187E0E80EF11CD0E0C0E0062F10E0C5
:100FD000B8010C2E02C0759567950A94E2F761700E
:100FE000F70181917F010E946A022196C430D105E8
:100FF00079F7C601DF91CF911F910F91FF90EF908C
:10100000DF90CF900C94C107CF92DF92EF92FF92C6
:101010000F931F93CF93DF93EC01F62E642F8C81F7
:101020000E946A028D818F3F19F060E00E946A027F
:101030000F2D10E08F8584FF25C06E0187E0C80E5C
:10104000D11CF12CE12CB8010E2C02C075956795CE
:101050000A94E2F76170F60181916F010E946A02C1
:10106000FFEFEF1AFF0A88E0E816F10461F7CE01FE
:10107000DF91CF911F910F91FF90EF90DF90CF9074
:101080000C94C107B80184E0759567958A95E1F7DE
:10109000CE010E94D7076F2DCE01DF91CF911F9116
:1010A0000F91FF90EF90DF90CF900C94D70741E025
:1010B0000E94040881E090E0089540E00C94040848
:1010C0000F931F93CF93DF93EC01623019F48F8558
:1010D00088608F876B8B1C8A80E48D8B80E18E8B80
:1010E00080E58F8B61E08C810E94B6028D818F3FFD
:1010F00019F061E00E94B60261E08E810E94B602A2
:101100008E0198012C1B3D0B8F8584FD0DC084E062
:1011100090E00F5F1F4F281739074CF461E0F8018A
:1011200086810E94B602EDCF88E090E0F2CF8BE39B
:101130009DE00197F1F760E08C810E946A0260E017
:101140008E810E946A028D818F3F19F060E00E94BB
:101150006A026F8564FD39C063E0CE010E94D70743
:101160000BE416E4C8010197F1F763E0CE010E9499
:10117000D707C8010197F1F763E0CE010E94D707B6
:1011800083E592E00197F1F762E0CE010E94D70774
:101190006F856062CE010E945D0884E0888B6CE000
:1011A000CE010E945D0861E0CE010E945D088BE3E4
:1011B0009FE10197F1F782E0898B66E0CE01DF9134
:1011C000CF911F910F910C945D086062CE010E9437
:1011D0005D088BE496E40197F1F76F856062CE01BC
:1011E0000E945D0883E592E00197F1F76F856062E8
:1011F000CE010E945D08CCCF1F93CF93DF93FC01FB
:10120000C685D785209709F403C162E370E080E0CA
:1012100090E00E94C7031092100310920F031092E7
:101220003E03109260030E94620488E891E090936C
:101230000E0380930D0389E891E090930C03809353
:101240000B039E8589858062913009F08FC00E94D2
:101250007E0180E00E940E068FE10E940E060E9431
:10126000A104882341F08B85823029F41B86DF910D
:10127000CF911F910895898580620E947E018CE044
:101280000E940E068FE10E940E060E94A104882390
:1012900019F08B85823051F3898580620E947E012E
:1012A00081E00E940E0680E00E940E060E94A104CA
:1012B000882319F08B858230C9F28B85823011F436
:1012C00081E08B878C8188608C8382E08F83188695
:1012D0008E85813009F07BC01D861C8613E068E393
:1012E000CE010E94260668E1CE010E94260611501A
:1012F000B1F768E2CE010E94260668E0CE010E94A6
:10130000260665E070E080E090E00E94C7036C81F3
:10131000606240E0CE010E94390665E070E080E046
:1013200090E00E94C7036C81606240E0CE010E94A1
:10133000390665E070E080E090E00E94C7038CE031
:101340008D838B85882329F040E06CE0CE010E94DC
:101350003906CE010E94C40682E08E8340E066E03A
:10136000CE01DF91CF911F910C9439060E947E012E
:1013700080E00E940E068FEF0E940E0680E00E9421
:101380000E0680E00E940E0680E00E940E0680E0BD
:101390000E940E0680E00E940E0680E00E940E066B
:1013A00080E00E940E0680E00E940E0680E00E940F
:1013B0000E060E94A104882321F08B85823009F457
:1013C00055CF898580620E947E0180E06ACF6CE9FA
:1013D000CE010E94130668E9CE010E9413066CE953
:1013E000CE010E94130668E9CE010E9413066CE943
:1013F000CE010E94130668E9CE010E94130664E93B
:10140000CE010E94130660E9CE010E94130679CF37
:1014100080899189009709F42ACF62E0DF91CF910A
:101420001F910C946008CF93DF93CDB7DEB7289758
:101430000FB6F894DEBF0FBECDBFFC018685978541
:10144000009761F1FC012385222309F441C028E0C3
:10145000E6E0F1E0DE01119601900D922A95E1F7A8
:10146000FC012781241710F44FEF420F50E0440F86
:10147000551F21E030E02C0F3D1F420F531FFA0192
:101480002081620F606840E028960FB6F894DEBFB6
:101490000FBECDBFDF91CF910C9439068089918921
:1014A0000097B1F0FC012389421710F04FEF420F73
:1014B000FC01E40FF11D2489620F606828960FB6C5
:1014C000F894DEBF0FBECDBFDF91CF910C945D08C5
:1014D00028960FB6F894DEBF0FBECDBFDF91CF9137
:1014E00008954F925F926F927F928F929F92AF92E8
:1014F000BF92EF92FF920F931F93CF93DF93DC0184
:101500001296ED90FC90E114F10409F443C1F70147
:10151000068517850115110509F41CC1D8011B9614
:101520008C9181112BC0D0E0C0E0D70118968D912D
:101530009C9119978C179D0709F42CC11996DC937F
:10154000CE9318971C968D919C91009709F422C117
:10155000DC01ED91FC910190F081E02DBE01DF9165
:10156000CF911F910F91FF90EF90BF90AF909F9000
:101570008F907F906F905F904F900994F8018185D4
:1015800080620E947E0182E10E940E060E94A104F8
:10159000D80119961C910E94A2034B015C01809115
:1015A0003703811165C081E0809337038093360350
:1015B0009FEF90933503109234031092330380937E
:1015C0001203809112031062110F182B1093120353
:1015D00080911103813009F083C0109211030E94A1
:1015E000A2034B015C01809112038093BB008091A8
:1015F000390390913A03A0913B03B0913C03892BAE
:101600008A2B8B2BA1F00E94A20300913903109129
:101610003A0320913B0330913C03681979098A0908
:101620009B09061717072807390708F442C080915D
:10163000BC0083FDD8CF85EC8093BC000E94A20340
:101640004B015C0180913703813009F44BC08091DC
:101650003403811169C080913403A3E1B3E0EFE862
:10166000F2E090E0981751F12D9121939F5FFACF0E
:101670008091390390913A03A0913B03B0913C03D0
:10168000892B8A2B8B2B09F48ACF0E94A2034090CE
:10169000390350903A0360903B0370903C03681903
:1016A00079098A099B09461657066806790608F0E3
:1016B00076CF809138030E94800480E0109210035E
:1016C00080930F038EEF93E00E9498058095982FEA
:1016D0009F7109F428CF81FF29C0C5E0D0E025CF54
:1016E00085EEAACF8091390390913A03A0913B03F4
:1016F000B0913C03892B8A2B8B2B09F4A3CF0E943A
:10170000A2030091390310913A0320913B033091D9
:101710003C03681979098A099B09061717072807E6
:10172000390708F08FCFC5CF81E097CF83FF03C083
:10173000C3E0D0E0FACE82FF03C0C4E0D0E0F5CE33
:1017400084FF03C0C2E0D0E0F0CE8170C82FB0E0CB
:10175000DB2FEBCE80899189892B09F4E4CE8EE0D2
:101760000E94E702813491050CF4B7CF8D3D9105BD
:10177000FCF28B38F1E09F0704F38A3522E09207F0
:101780000CF331E020E0893693400CF030E0C32FB9
:10179000D22FCBCEDF91CF911F910F91FF90EF9081
:1017A000BF90AF909F908F907F906F905F904F9081
:1017B00008954F925F926F927F928F929F92AF9215
:1017C000BF92CF92DF92EF92FF920F931F93CF932E
:1017D000DF93CDB7DEB72E970FB6F894DEBF0FBEFE
:1017E000CDBF2B013C01DC01CB0180959095A095EC
:1017F000B0958827B7FD83959927AA27BB27909393
:101800004B0480934A041092140410921504109211
:1018100016041092170477FE08C0709460945094D8
:101820004094411C511C611C711C40923604509222
:101830003704609238047092390410923204109286
:101840003304109234041092350410921004109254
:1018500011041092120410921304809028049090A6
:101860002904A0902A04B0902B0460911C0470916C
:101870001D04072E000C880B990B0E94361D6983EE
:101880007A838B839C836091260470912704072EB2
:10189000000C880B990B0E94361D6B017C01809116
:1018A0002C0490912D04019709F094C1A501940195
:1018B00069817A818B819C810E94951D20E030E0B6
:1018C00040E752E40E94271F69837A838B839C83BD
:1018D00020912E0430912F043E872D879B01AC016F
:1018E0000E94951D4B015C016D857E85660F771FFB
:1018F000072E000C880B990B0E94361D9B01AC0132
:10190000C501B4010E94271FA70196010E94951DE1
:101910000E94991F4B015C0180923A0490923B0413
:10192000A0923C04B0923D04009130041091310427
:10193000C801012E000CAA0BBB0B8D839E83AF83C5
:10194000B8878D859E85092E000CAA0BBB0B898755
:101950009A87AB87BC879C01AD01C501B4010E9489
:1019600034202D813E814F8158850E94662020932E
:101970003E0430933F044093400450934104820E50
:10198000931EA41EB51E481459046A047B0434F542
:10199000A30192016D817E818F8198850E94342000
:1019A0002D853E85200F311F032E000C440B550B57
:1019B0000E94662020933A0430933B0440933C04F9
:1019C00050933D04421A530A640A750A40923E0439
:1019D00050923F04609240047092410469857A8578
:1019E0008B859C850E94361D9B01AC0160E070E0F8
:1019F00080E090E40E94271FA70196010E94271F04
:101A00000E94DA1F20E03AE045E259E40E94951D69
:101A10000E94991F6093420470934304809344048E
:101A20009093450429813A814B815C8160E074E2A6
:101A300084E799E40E94271FA70196010E94271FAF
:101A40000E94991F60934604709347048093480452
:101A5000909349048091360490913704A091380402
:101A6000B0913904181619061A061B060CF0BDC1F0
:101A70008090180490901904A0901A04B0901B0450
:101A800081149104A104B104E1F0C0901404D09039
:101A90001504E0901604F0901704C114D104E10479
:101AA000F10421F40E94A2036B017C010E94A203B5
:101AB0006C197D098E099F09681579058A059B05B2
:101AC000A8F360914A0480911E040E946A0261E0BA
:101AD000809120040E946A020E94A20369837A8393
:101AE0008B839C83C0904204D0904304E0904404D4
:101AF000F09045048091360490913704A091380409
:101B0000B0913904181619061A061B060CF0FAC013
:101B10009C01AD012150310941095109209336043E
:101B20003093370440933804509339048091320441
:101B300090913304A0913404B09135040196A11D15
:101B4000B11D8093320490933304A0933404B09376
:101B5000350460912C0470912D046130710509F0F9
:101B6000D1C0211531054105510509F4CBC0409084
:101B70003E0450903F04609040047090410442162F
:101B80005306640675060CF078C040913A045091F3
:101B90003B0460913C0470913D04481759076A0763
:101BA0007B070CF4AFC084179507A607B7070CF4A2
:101BB00000C18091460490914704A0914804B091DF
:101BC00049048093420490934304A0934404B09347
:101BD000450498C010923A0410923B0410923C04C1
:101BE00010923D0410923E0410923F041092400463
:101BF0001092410429813A814B815C8160EC71EE45
:101C000084E69CE40E94271FA70196010E94271FDB
:101C1000A50194010E94271F0E94991F6B017C015E
:101C2000C0924604D0924704E0924804F0924904DE
:101C3000A30192010E94342097FD09C0C092420482
:101C4000D0924304E0924404F092450403CFC301D0
:101C5000B2010E94361D9B01AC0160E070E0CB0137
:101C60000E94271F0E94991F6093420470934304AF
:101C70008093440490934504EDCE4090100450901E
:101C800011046090120470901304ACEFBFEF0E9437
:101C900097204B015C01AFEF8A1A9A0AAA0ABA0A86
:101CA000C701B601660F771F881F991F640D751D48
:101CB000861D971DA50194010E946620D701C601CB
:101CC000821B930BA40BB50B8093420490934304A7
:101CD000A0934404B0934504BC01CD01660F771F67
:101CE000881F991F640D751D861D971DA501940100
:101CF0000E94662060931004709311048093120474
:101D0000909313040E94A2032B013C010E94A203A2
:101D10004616570668067906C9F360E080912004EC
:101D20000E946A020E94A203609314047093150437
:101D30008093160490931704A981BA816A1B7B0BC8
:101D4000CB01B0E0A0E08C159D05AE05BF0508F005
:101D500047C0C81AD90AEA0AFB0AC0921804D092EE
:101D60001904E0921A04F0921B04809118049091D7
:101D70001904A0911A04B0911B04892B8A2B8B2B78
:101D800009F068CE2E960FB6F894DEBF0FBECDBF19
:101D9000DF91CF911F910F91FF90EF90DF90CF9047
:101DA000BF90AF909F908F907F906F905F904F907B
:101DB00008954090100450901104609012047090A7
:101DC000130442E0880F991FAA1FBB1F4A95D1F741
:101DD0004C015D012FEF821A920AA20AB20A60CF6B
:101DE000C12CD12C7601C394B8CF10921404109258
:101DF00015041092160410921704109218041092F1
:101E0000190410921A0410921B04AFCF80918B0218
:101E100090918C02892B79F484E090E00E94A220BA
:101E20002CE131E0FC0131832083138212829093F4
:101E30008C0280938B0280918B0290918C0208958A
:101E4000CF93DF93EC0188E491E0998388830E942B
:101E5000060FDC011296ED91FC911397CE17DF0768
:101E600051F4288D398D13963C932E931297DF9160
:101E7000CF910895FC013097D1F3808D918DC817D3
:101E8000D907C1F7888D998D918F808FF0CFCF932F
:101E9000DF938091890290918A02892BD1F482E0AC
:101EA00090E00E94A220EC0184E291E09983888373
:101EB00082E090E00E94A22022E131E0FC01318327
:101EC000208390938E0280938D02D0938A02C093D8
:101ED00089028091890290918A02DF91CF910895C1
:101EE000FB0101900020E9F73197AF01461B570B2A
:101EF000DC01ED91FC910280F381E02D09948F9239
:101F00009F92AF92BF92EF92FF920F931F93CF9346
:101F1000DF93CDB7DEB7A1970FB6F894DEBF0FBE43
:101F2000CDBF7C01FA01CB0119A2223008F42AE0CE
:101F30008E010F5D1F4F822E912CB12CA12CBF0161
:101F4000A50194010E944420F901CA016A300CF5F0
:101F5000605DD8016E938D01232B242B252B79F7FF
:101F600090E080E0109721F0BD01C7010E94700F42
:101F7000A1960FB6F894DEBF0FBECDBFDF91CF9113
:101F80001F910F91FF90EF90BF90AF909F908F9017
:101F90000895695CDECFCF92DF92EF92FF920F93AC
:101FA0001F93CF93DF936B01770FEE08FF08F7FEC7
:101FB0001BC0EC016DE20E94F9038C0144275527F8
:101FC000BA014C195D096E097F092AE0CE010E9411
:101FD0007F0F800F911FDF91CF911F910F91FF9085
:101FE000EF90DF90CF9008952AE0B701A601DF912E
:101FF000CF911F910F91FF90EF90DF90CF900C94B5
:102000007F0F0C94700FCF93DF93EC01EE85FF856B
:10201000309709F44AC08385882391F19E81828597
:10202000882311F087E098278685813061F520ECC0
:1020300031E090FF02C020E831E03587248791FF2E
:1020400005C0248535852F773587248792FF05C005
:10205000848595859E7F95878487D485C585818570
:1020600080620E947E0182E10E940E068D2F0E94F6
:102070000E068C2F0E940E060E94A1048111FCCF37
:10208000DF91CF9108958581992369F088608583D8
:10209000658180E1689FB00111246078CF01DF91F4
:1020A000CF910C941306877FF2CF88899989892B69
:1020B00039F38E819F81892BB1F060EA71E081E66E
:1020C00093E00E94700F63ED71E081E693E00E945F
:1020D000700F60E08C810E94B60260E08C81DF911D
:1020E000CF910C946A0266ED71E081E693E00E9464
:1020F000700F63ED71E081E693E00E94700F61E084
:10210000E9CF0F931F93CF93DF93EC0188819981DF
:10211000009759F02A813B812617370730F081E07C
:10212000DF91CF911F910F9108958B016F5F7F4FCA
:102130000E94C721009759F0998388831B830A83E3
:102140002C813D81232B59F7FC011082E8CF80E0E0
:10215000E7CFCF93DF93EC0188819981009711F04D
:102160000E943E21198218821D821C821B821A82C3
:10217000DF91CF910895EF92FF920F931F93CF932A
:10218000DF938C017B01EB0109900020E9F7219797
:10219000C61BD70BBE010E948110811109C0C80166
:1021A000DF91CF911F910F91FF90EF900C94A910A8
:1021B000F801D583C483B70180819181DF91CF91EC
:1021C0001F910F91FF90EF900C948D22EF92FF9250
:1021D0000F931F93CF93DF93CDB7DEB7A1970FB6C1
:1021E000F894DEBF0FBECDBF7C01CB01BA01F70171
:1021F0001182108213821282158214828E010F5F67
:102200001F4F22E044E00E94A51A009789F0BC010C
:10221000C7010E94BB10A1960FB6F894DEBF0FBE97
:10222000CDBFDF91CF911F910F91FF90EF90089557
:10223000C7010E94A910EFCF0F931F93CF93DF9395
:10224000CDB7DEB762970FB6F894DEBF0FBECDBF35
:102250008C01CB01F8011182108213821282158247
:1022600014824AE0BE016F5F7F4F0E94C31ABE0115
:102270006F5F7F4FC8010E94BB1062960FB6F89443
:10228000DEBF0FBECDBFDF91CF911F910F9108959B
:10229000FC0180819181009711F00C943E210895FA
:1022A000CF93DF93EC010E94200FCE01DF91CF91FD
:1022B0000C943E210C943E21CF93DF93EC018AE5F0
:1022C00091E099838883888999890E943E21198A9F
:1022D000188A8E859F85009739F0DC01ED91FC917D
:1022E0000284F385E02D09951F861E86EA85FB850D
:1022F00086899789009739F0DC01ED91FC91048083
:10230000F581E02D09958A859B85FC01178A168A3F
:10231000009749F00190F081E02D0280F381E02DDB
:10232000DF91CF910994DF91CF910895CF93DF93FF
:10233000EC010E945C11CE01DF91CF910C943E2103
:102340000C943E210C943E21CF93DF93EC010E942C
:10235000F306CE01DF91CF910C943E210C943E21E7
:102360000C943E2185ED8093BC00809139039091BF
:102370003A03A0913B03B0913C030796A11DB11D08
:1023800023E0B695A795979587952A95D1F7209143
:10239000BC0024FD03C01092370308954091390317
:1023A00050913A0360913B0370913C03452B462BBF
:1023B000472B69F30097A105B10541F02AE22A9560
:1023C000F1F700C00197A109B109E1CF809138036D
:1023D0000C9480044F925F926F927F92AF92BF9263
:1023E000CF92DF92EF92FF920F931F93CF93DF93E1
:1023F000CDB7DEB767970FB6F894DEBF0FBECDBF7F
:102400008C017B01DC011296ED91FC91868597850C
:10241000009709F440C00E94C406B3E0EB16F10433
:1024200009F466C008F044C0F1E0EF16F10409F4C5
:10243000A2C082E0E816F10409F46DC0D801169636
:102440008C91813009F4FAC108F4D8C1823009F4C2
:1024500074C2F801828193812481277030E0DC010D
:1024600017963C932E9316970E94031067960FB60B
:10247000F894DEBF0FBECDBFDF91CF911F910F91BA
:10248000FF90EF90DF90CF90BF90AF907F906F90D4
:102490005F904F90089580899189009709F4BDCF8E
:1024A00061E00E945D088BE39FE10197F1F7B5CFF2
:1024B00094E0E916F10421F1A5E0EA16F10409F02F
:1024C000BDCFD80116968C911697813009F0B6CF02
:1024D00015968C91813009F44AC008F442C08230CC
:1024E00009F0ACCF8091FD029091FE02019624C0CC
:1024F000F8018581843008F0A1CF8F5F85839ECF5E
:10250000D80115968C911597882309F497CF81509F
:1025100015968C9393CFF8018681813009F08ECF88
:1025200085818130C1F068F0823009F087CF8091D9
:10253000FD029091FE0201979093FE028093FD02AE
:102540007DCF8091FA029091FB0201979093FB025C
:102550008093FA0273CF8091FC0281508093FC0239
:102560006DCF8091FA029091FB020196EFCF80919E
:10257000FC028F5FF3CFF8018581813009F439C106
:1025800030F1823009F438C1833009F057CF8681A9
:10259000813009F053CF1682158289EFC82E82E070
:1025A000D82EF12CE12CF601B1906F01C7010E94E9
:1025B000531EB81621F06B2DC7010E945B1EFFEF62
:1025C000EF1AFF0A88E0E816F10469F737CF81E0D7
:1025D0008093010380938802E090F702F090F80264
:1025E00040E060E0C7010E94130A6FE372E0C70198
:1025F0000E940110E090F702F090F80240E062E0E3
:10260000C7010E94130A6091FA027091FB02C70190
:102610000E94CB0FE090F702F090F80240E068E0F3
:10262000C7010E94130A4091FC0250E070E060E094
:102630002AE0C7010E947F0FE090F702F090F802B5
:1026400040E06DE0C7010E94130A6091FD027091A5
:10265000FE02C7010E94CB0F20911C0430911D0483
:10266000A0912604B09127040E94852028E631E03D
:1026700040E050E00E946620CA01B9010E94D90BD7
:102680002091FA023091FB028091FC02A901480FCF
:10269000511D869590E06901C80ED91E281B390B83
:1026A000CA01550FAA0BBB0B888B998BAA8BBB8BCE
:1026B000C901330FAA0BBB0B8C8B9D8BAE8BBF8BD1
:1026C0000D2C000CEE08FF0880918802882309F485
:1026D0008DC00E94FC022B013C014092F3025092FB
:1026E000F4026092F5027092F602A090F702B090A8
:1026F000F80241E062E0C5010E94130AB301A201A1
:10270000CE0101960E94E610BE016F5F7F4FC501AA
:102710000E940004CE0101960E94481168897989BF
:102720008A899B890E94361D2091F3023091F40220
:102730004091F5025091F6020E94CF1F181694F4B2
:1027400061E08BE00E946A02A090F702B090F8026C
:1027500041E060E0C5010E94130A6FE472E0C50128
:102760000E9401106C897D898E899F890E94361D87
:102770002091F3023091F4024091F5025091F6025B
:102780000E942F1D87FF06C068E37FEF8FEF9FEF4A
:102790000E94D90B0E94FC022B013C014092F302E3
:1027A0005092F4026092F5027092F602C701B601EF
:1027B0000E94361D9B01AC01C301B2010E94CF1FD4
:1027C00018160CF081CF60E08BE00E946A02A090A6
:1027D000F702B090F80241E060E0C5010E94130AE0
:1027E0006AE672E0C5010E9401106ECF10920103EB
:1027F00025CE8683158222CE868320CE40E060E0FF
:10280000F801828193810E94130AD80112962D91BA
:102810003C91139715969C9169E072E0992351F0D1
:102820006FE072E0913031F066E172E0923011F0C9
:102830006EE172E0C9010E9401100BCE40E060E041
:10284000F801828193810E94130AD80112962D917A
:102850003C91139715969C9163E272E0992351F095
:102860006FE272E0913031F069E372E0923011F082
:102870006EE172E0C9010E94011041E060E0F801E0
:10288000828193810E94130AD8011296ED90FC90E8
:10289000139715968C916091FA027091FB02882330
:1028A00049F1813009F58091FC021B861A861D864C
:1028B0001C861F861E864AE0BE016F5F7F4F90E038
:1028C0000E94CE1ABE016F5F7F4FCE010A960E9412
:1028D000BB10BE01665F7F4FC7010E940004CE019E
:1028E0000A960E944811B5CD823049F46091FD02EC
:1028F0007091FE02CE010A960E941C11EACF1B863F
:102900001A861D861C861F861E8662E070E0CE0138
:102910000A960E948110811105C0CE010A960E947C
:10292000A910D7CF82E090E09F878E8761E572E0A3
:102930008A859B850E948D22CCCF81E08093010304
:102940000E94FC022B013C014092F3025092F402DF
:102950006092F5027092F602E090F702F090F802B1
:1029600041E060E0C7010E94130AB301A201CE0159
:1029700001960E94E610BE016F5F7F4FC7010E9463
:102980000004CE0101960E94481160E08BE00E9495
:102990006A02E090F702F090F80240E060E0C701C0
:1029A0000E94130A64E572E0C7010E94011064EFFF
:1029B00071E080E090E00E94C703A0911C04B091F8
:1029C0001D0428E631E00E948D209B01AC01A091FE
:1029D0002604B09127040E94942028E631E040E0CC
:1029E00050E00E946620CA01B9010E94D90B68EC30
:1029F00070E080E090E00E94D90B68E37FEF8FEFFA
:102A00009FEF0E94D90B60E08BE00E946A02E09089
:102A1000F702F090F80220E030E048EC52E46091D8
:102A2000F3027091F4028091F5029091F6020E94F7
:102A30002F1D87FF26C061E08BE00E946A020E9482
:102A4000FC022B013C014092F3025092F40260928E
:102A5000F5027092F60241E060E0C7010E94130A9D
:102A6000B301A201CE0101960E94E610BE016F5F84
:102A70007F4FC7010E940004CE0101960E944811B9
:102A8000C6CF60E08BE00E946A0240E060E0C701D0
:102A90000E94130A6FE572E0C7010E94011060ED09
:102AA00077E080E090E00E94C703109201030C944D
:102AB0000000CFCC1F920F920FB60F9211242F93CC
:102AC0003F938F939F93AF93BF9380910303909114
:102AD0000403A0910503B09106033091020323E0A3
:102AE000230F2D3758F50196A11DB11D2093020328
:102AF0008093030390930403A0930503B09306030C
:102B00008091070390910803A0910903B0910A03F3
:102B10000196A11DB11D8093070390930803A09314
:102B20000903B0930A03BF91AF919F918F913F9199
:102B30002F910F900FBE0F901F90189526E8230F2E
:102B40000296A11DB11DD2CF1F920F920FB60F9208
:102B500011242F933F934F935F936F937F938F93A2
:102B60009F93AF93BF93EF93FF9381E693E00E940F
:102B7000C701FF91EF91BF91AF919F918F917F918D
:102B80006F915F914F913F912F910F900FBE0F90DA
:102B90001F9018951F920F920FB60F9211242F932A
:102BA0008F939F93EF93FF93E0917103F0917203E2
:102BB0008081E0917703F091780382FD1BC09081C2
:102BC00080917A038F5F8F7320917B03821741F08E
:102BD000E0917A03F0E0EF59FC4F958F80937A03F0
:102BE000FF91EF919F918F912F910F900FBE0F90BA
:102BF0001F9018958081F4CF1F920F920FB60F92FD
:102C000011242F933F934F935F936F937F938F93F1
:102C10009F93AF93BF93EF93FF938091B900887F09
:102C2000803609F44AC0F0F5883209F4A7C018F5D7
:102C3000803109F49BC0B8F4882309F4F9C08830C6
:102C400009F494C0FF91EF91BF91AF919F918F9143
:102C50007F916F915F914F913F912F910F900FBE98
:102C60000F901F901895883109F488C0803251F771
:102C70008093350314C0803409F49DC040F4803340
:102C8000B9F38833F9F68093350385ECB0C080350D
:102C900009F485C0883509F496C0883499F60E94F5
:102CA000B211D0CF883909F48CC038F5883729F0B3
:102CB00050F4883611F0803729F683E0809337038B
:102CC0001092F20257C0883809F47BC0803919F09D
:102CD000803809F0B7CF8091F202803208F071C0DD
:102CE000E091F20281E08E0F8093F2028091BB00AE
:102CF000F0E0EE52FD4F80833DC0803B39F0E0F4C0
:102D0000803A09F479C0883A09F09CCF84E0809336
:102D100037031092D1021092D002E0910D03F0918E
:102D20000E0309958091D00281110FC081E080933C
:102D3000D0021092B00209C0803C09F4A6CF883CB2
:102D400009F4A3CF883B09F07DCFE091D10281E067
:102D50008E0F8093D102F0E0E055FD4F808180938B
:102D6000BB009091D1028091D00229C080911203C2
:102D70008093BB0085EC8093BC0064CF90913403BA
:102D800080913303981758F5E091340381E08E0F5A
:102D900080933403F0E0ED5EFC4F8081E9CFE09159
:102DA000340381E08E0F809334038091BB00F0E008
:102DB000ED5EFC4F8083909134038091330398172C
:102DC000C8F285E8D8CFE091340381E08E0F80937C
:102DD00034038091BB00F0E0ED5EFC4F8083809176
:102DE000360381115CCF81E08093110384EA8093E4
:102DF000BC001092370326CF85EC8093BC00109264
:102E000037038091F202803230F4E091F202F0E078
:102E1000EE52FD4F10826091F20270E0E0910B03E0
:102E2000F0910C0382ED92E009951092F2020ACF24
:102E30001092350334CFE1E6F3E01382128288EE7C
:102E400093E0A0E0B0E084839583A683B78324E772
:102E500031E03183208325EC30E03587248724EC72
:102E600030E03787268720EC30E0318B208B21EC57
:102E700030E0338B228B22EC30E0358B248B26EC38
:102E800030E0378B268B118E128E138E148EEEEF60
:102E9000F3E01382128284839583A683B78386E846
:102EA00091E091838083EEE0F4E088E991E0918302
:102EB00080831682178210861186128613861486E6
:102EC000158688EC90E0978786878CE090E0918B60
:102ED000808B8DE090E0938B828B8FEF9FEF958BB3
:102EE000848B81E090E0978B868B918F808F128E00
:102EF000138E148E158E178E168E88EE93E091A386
:102F000080A393A382A314A615A616A617A610A69F
:102F100011A612A613A615AE14AE10AA11AA12AAD3
:102F200013AA14AA15AA16AA17AA10AE11AE12AEA9
:102F300013AE128213821482158214A215A216A255
:102F400017A260E08FE00E94B602EAE0F4E08FE0B2
:102F500090E09183808386EE93E09383828308954B
:102F6000789484B5826084BD84B5816084BD85B564
:102F7000826085BD85B5816085BD80916E00816070
:102F800080936E0010928100809181008260809316
:102F90008100809181008160809381008091800018
:102FA0008160809380008091B10084608093B10043
:102FB0008091B00081608093B00080917A0084603D
:102FC00080937A0080917A00826080937A00809169
:102FD0007A00816080937A0080917A008068809383
:102FE0007A001092C10009EF12E0D0E0C0E0CE01FB
:102FF0000E94531ED8018D938D012196C830D105B2
:10300000B1F76091FD027091FE02072E000C880B53
:10301000990B0E94361D6B017C0161E080911E04BA
:103020000E94B60261E080911E040E946A0261E083
:10303000809120040E94B60260E0809120040E94EA
:103040006A0280912204909123048F3F980739F0FF
:1030500061E00E94B6028EE094E00E946307C09295
:103060002804D0922904E0922A04F0922B0461E013
:1030700070E08EE094E00E9497078EE094E00E945A
:10308000740761E08BE00E94B60260E08BE00E9472
:103090006A0282E190E00E94A220EC011B821A8267
:1030A0008AE591E0998388838AE090E09D838C8310
:1030B0001F821E821986188684E090E00E94A2205A
:1030C0007C0180E591E0F70191838083D383C28303
:1030D0008AE190E00E94A2208C0188E491E0D8016E
:1030E00011969C938E9312961C92129781E01396E0
:1030F0008C93139714961C92149715961C921597FF
:10310000F80116821782108611861A961D921D925A
:103110001D921C921D978FEF9FEFDC01868797878A
:10312000A08BB18B82E390E0A0E0B0E0828B938B28
:10313000A48BB58BF78AE68A118E108E0E94060F3B
:10314000DC011296ED91FC911397309709F051C173
:1031500013961C930E931297FF24F394F801F282B6
:103160000E94470F0E944F07D80116966D937D93DA
:103170008D939C931997C8010E9417071B870A8794
:103180001D861C861F861E86198A188A10921003B7
:1031900010920F0310923E03109260030E9462048B
:1031A00088E891E090930E0380930D0389E891E005
:1031B00090930C0380930B0380E20E947E010E9497
:1031C000A10481112BC08FE090E00E94A220FC019D
:1031D0001382128288E391E09183808382E0838767
:1031E000128680E2818714821686FF87EE873097E9
:1031F00009F0F686CE010E94FC088E859F85FC01B1
:1032000023852111FDC0009739F00190F081E02D58
:103210000284F385E02D09951F861E868E859F8585
:10322000892B09F04DC088E190E00E94A2208C011A
:10323000DC0113961C921E9212978CE291E011967B
:103240009C938E9388E014968C9314978FEF159629
:103250008C93159789E016968C93169784E01796B1
:103260008C93179785E018968C93189786E019969B
:103270008C93199787E01A968C931A971B961C9239
:103280001B971C961C921C971D961C921D971E96B0
:103290001C921E971F961C9261E0C8010E94600854
:1032A000198B088BCE010E94031060E08EE00E9413
:1032B000B60260E08EE00E946A02CE010E94FC0825
:1032C000D093F802C093F70287E090E00E94A2201A
:1032D000FC018AE691E091838083D383C28387E0F7
:1032E000848315821682FD87EC8740E060E0CE0182
:1032F0000E94130A6CE672E0CE010E9401100E9447
:10330000FC026B017C01C092F302D092F402E092C5
:10331000F502F092F602C091F702D091F80241E076
:1033200060E0CE010E94130AA7019601C701B60111
:103330000E941A206CE772E081111BC04601570100
:10334000E894B7F82FEF3FEF4FE75FE7C501B4010F
:103350000E941A20811158C02FEF3FEF4FE75FE71F
:10336000C501B4010E942F1D18160CF04DC060E875
:1033700072E0CE010E94700F64EF71E080E090E097
:103380000E94C703BB24B39400E010E080910103C6
:103390008111CFC00E94060FFC01C281D38120970A
:1033A00009F4C7C00E94470F0E944F076E837F83B6
:1033B000888799872A812223B9F0CA84DB84EC8428
:1033C000FD842D81222309F498C06C157D058E059E
:1033D0009F0550F0CE84DF84E888F9886C157D0560
:1033E0008E059F0508F48FC0088CD98DC02DD7CFCE
:1033F000FC01808D918D0097D9F7118F008FACCE95
:10340000CE010E9403100ACF2FEF3FEF4FE75FE49A
:10341000C701B6010E94CF1F18161CF464E872E0C1
:10342000A8CF2FEF3FEF4FE75FECC701B6010E9437
:103430002F1D87FDF3CF20E030E0A901C701B601C1
:103440000E942F1D87FF08C06DE2CE010E94F90384
:10345000F7FAF094F7F8F0942AE037ED43EA5BE3EB
:10346000C701B6010E94BB1E4B015C010E94A01F58
:103470006B017C010E94341D9B01AC01C501B401AC
:103480000E94BA1E4B015C012AE0B701A601CE01E1
:103490000E947F0F6EE2CE010E94F90320E030E02F
:1034A00040E251E4C501B4010E94951D4B015C014D
:1034B0000E94A01F6B01F12CE12C2AE0B701A601AC
:1034C000CE010E947F0FC701B6010E94341D9B01EF
:1034D000AC01C501B4010E94BA1E20E030E040E218
:1034E00051E40E94951D0E94A01FAB0170E060E0B6
:1034F0002AE0CE010E947F0F3FCF6C157D058E051F
:103500009F0508F467CF8B81882389F0CE010E9444
:103510001707BC828E899F89009709F465CFDC016B
:10352000ED91FC910190F081E02D09955DCF1A821B
:10353000F0CF0115110509F429CF0E945602882306
:1035400009F424CF0E94000021CFEF920F931F9324
:10355000CF93DF93E80134E047FD34E1042E000C03
:10356000550B57FF03C0519541955109E32E022F8A
:10357000242FAE010E94E81ACE01DF91CF911F9156
:103580000F91EF900895BB274A3031F4992322F42C
:10359000BDE2909581959F4F0C94CF1ABB27FB01FC
:1035A0005527AA27880F991FAA1FA41710F0A41B3C
:1035B00083955051B9F7A05DAA3308F0A95DA19396
:1035C000009779F7B111B1931192CB010C941F1DA3
:1035D000A9E0B0E0EEEEFAE10C947A1E6A01F22E58
:1035E000B02E102FFBE3AF2EA01608F41BE31F5FD5
:1035F000012F27E0AE014F5F5F4F0E94471CBC01C7
:103600008981982F9970913009F43FC09BE2E1FCC9
:1036100004C09E2D9170E0FC3AC05E2D5071E82FE1
:10362000E87083FF46C084E0911101C083E0EF2D74
:10363000E81B8F1508F0E0E0D6018E2F20E255231D
:1036400051F1992329F0D6019C93C60101966C0192
:1036500096012D5F3F4FE2FE24C08EE4D6018C938D
:1036600091E411969C93119712968C93D9018E2F09
:1036700090E281111BC0E20FF32FF11D10828EEF3B
:103680009FEF2996ECE00C94961E9DE2C6CF90E247
:10369000C4CF2D9381508111FCCFCE0ED11CE0E020
:1036A000D0CF8EE6D6018C9391E6DBCF9D938150EF
:1036B000E0CF482F447082FF3DC084E0911101C0EB
:1036C00083E08F1510F4EF2DE81BD6018E2F20E23A
:1036D000552309F1992329F0D6019C93C60101963F
:1036E0006C0196012D5F3F4FE2FE1BC089E4D601BD
:1036F0008C938EE411968C93119786E412968C939A
:10370000D9018E2F90E2882309F4B5CF9D93815083
:10371000FACF2D9381508111FCCFCE0ED11CE0E069
:10372000D9CF89E6D6018C938EE611968C931197AA
:1037300086E6E4CF9B0177FF02C030E020E0A1E005
:10374000B0E0911102C0B0E0A0E0F9013196AE0FF7
:10375000BF1F8B2C912CBB2009F461C05401EFEFEB
:10376000AE1ABE0AAA0DBB1DFA161B0619F014F0FC
:103770004F2D4A1B511188C0E3FC59C07601A42F7C
:10378000B0E2A1114FC0C40ED11C992309F45BC053
:1037900040E0D6011196F60190836D01552309F49E
:1037A00048C0012F060F9A81582F507184FF03C023
:1037B000913309F4015010160CF047C0093008F09D
:1037C00008E0EEE2FE2E5B01A01AB108850191949B
:1037D000819491082F3F320729F4D601FC92F6011B
:1037E00031966F016217730794F1021713077CF586
:1037F000DB01A21BB30BAA24A394B12CAC0EBD1EFB
:10380000AA0DBB1D11968C9121503109D60111963C
:1038100028153905F4F0F60180836D01DBCFB12C5A
:10382000A12CA0CFF701B1937F01A150AACF911194
:10383000B0CFD601942F50E302C05D939150911107
:10384000FCCFC40ED11C40E0ACCF01E0BACF80E386
:10385000DBCF6217730731F4963388F4953311F494
:10386000552369F0F6018083FD01842F90E28111D8
:1038700008C0A40FB11D1C9290E080E002CF81E34C
:10388000F1CF91938150F3CF911183CF8ACF28301C
:1038900008F027E03327DA01990F311D87FD916089
:1038A00000966105710539F432602E5F3D9330E377
:1038B0002A95E1F708959F3F30F080387105610542
:1038C00009F03C5F3C5F3D93913008F08068911DAA
:1038D000DF93CF931F930F93FF92EF92192F987F4F
:1038E0009695E92F96959695E90FFF27EE53FF4F92
:1038F00099273327EE24FF24A701E70105900894B8
:10390000079428F4360FE71EF81E491F511D660F55
:10391000771F881F991F0694A1F70590079428F434
:10392000E70EF81E491F561FC11D770F881F991FEC
:10393000661F0694A1F70590079428F4F80E491F16
:10394000561FC71FD11D880F991F661F771F06942A
:10395000A1F70590079420F4490F561FC71FD81FE1
:10396000990F661F771F881F0694A9F784911095F9
:10397000177041F0D695C79557954795F794E794FA
:103980001A95C1F7E8E6F0E0689415901591359125
:103990006591959105907FE27395E118F10A430BCB
:1039A000560BC90BD009C0F7E10CF11E431F561F7F
:1039B000C91FD01D7EF4703311F48A95E6CFE894C8
:1039C000015030F0080F0AF40027021708F4202FE6
:1039D0002395022F7A3328F079E37D932A95E9F72E
:1039E00010C07D932A9589F606949795679537952B
:1039F00017951794E118F10A430B560BC90BD00920
:103A000098F023957E9173957A3308F070E37C9358
:103A10002013B8F77E9170617D9330F0839571E348
:103A20007D9370E32A95E1F71124EF90FF900F91B9
:103A30001F91CF91DF91992787FD90950895DC0123
:103A4000FC01672F71917723E1F7329704C07C91D5
:103A50006D9370836291AE17BF07C8F308950E94FB
:103A6000711D08F481E00895E89409C097FB3EF4C5
:103A700090958095709561957F4F8F4F9F4F9923BB
:103A8000A9F0F92F96E9BB279395F6958795779539
:103A90006795B795F111F8CFFAF4BB0F11F460FFF9
:103AA0001BC06F5F7F4F8F4F9F4F16C0882311F051
:103AB00096E911C0772321F09EE8872F762F05C065
:103AC000662371F096E8862F70E060E02AF09A9500
:103AD000660F771F881FDAF7880F9695879597F9F5
:103AE0000895990F0008550FAA0BE0E8FEEF16168F
:103AF0001706E807F907C0F012161306E407F507E2
:103B000098F0621B730B840B950B39F40A2661F055
:103B1000232B242B252B21F408950A2609F4A140F8
:103B2000A6958FEF811D811D08950E94A81D0C94FC
:103B3000191E0E940B1E38F00E94121E20F09523C1
:103B400011F00C94021E0C94081E11240C944D1EAE
:103B50000E942A1E70F3959FC1F3950F50E0551FE8
:103B6000629FF001729FBB27F00DB11D639FAA27D2
:103B7000F00DB11DAA1F649F6627B00DA11D661F21
:103B8000829F2227B00DA11D621F739FB00DA11D42
:103B9000621F839FA00D611D221F749F3327A00DFC
:103BA000611D231F849F600D211D822F762F6A2F98
:103BB00011249F5750409AF0F1F088234AF0EE0FFD
:103BC000FF1FBB1F661F771F881F91505040A9F72A
:103BD0009E3F510580F00C94021E0C944D1E5F3FD9
:103BE000E4F3983ED4F3869577956795B795F79566
:103BF000E7959F5FC1F7FE2B880F911D96958795DE
:103C000097F9089597F99F6780E870E060E008955C
:103C10009FEF80EC089500240A94161617061806E4
:103C20000906089500240A941216130614060506C0
:103C30000895092E0394000C11F4882352F0BB0F51
:103C400040F4BF2B11F460FF04C06F5F7F4F8F4FB4
:103C50009F4F089557FD9058440F551F59F05F3FEF
:103C600071F04795880F97FB991F61F09F3F79F09E
:103C700087950895121613061406551FF2CF469520
:103C8000F1DF08C0161617061806991FF1CF8695A2
:103C90007105610508940895E894BB276627772786
:103CA000CB0197F90895F999FECF92BD81BDF89A9D
:103CB000992780B50895262FF999FECF1FBA92BD96
:103CC00081BD20BD0FB6F894FA9AF99A0FBE0196FD
:103CD00008950E94AB1EA59F900DB49F900DA49FC8
:103CE000800D911D112408952F923F924F925F9263
:103CF0006F927F928F929F92AF92BF92CF92DF92FC
:103D0000EF92FF920F931F93CF93DF93CDB7DEB760
:103D1000CA1BDB0B0FB6F894DEBF0FBECDBF0994F4
:103D20002A88398848885F846E847D848C849B844B
:103D3000AA84B984C884DF80EE80FD800C811B8159
:103D4000AA81B981CE0FD11D0FB6F894DEBF0FBE88
:103D5000CDBFED010895A29FB001B39FC001A39F05
:103D6000700D811D1124911DB29F700D811D1124B4
:103D7000911D08955058BB27AA270E94D21E0C946B
:103D8000191E0E940B1E38F00E94121E20F039F4FA
:103D90009F3F19F426F40C94081E0EF4E095E7FBFF
:103DA0000C94021EE92F0E942A1E58F3BA176207CC
:103DB00073078407950720F079F4A6F50C944C1E40
:103DC0000EF4E0950B2EBA2FA02D0B01B901900136
:103DD0000C01CA01A0011124FF27591B99F0593F7A
:103DE00050F4503E68F11A16F040A22F232F342FC2
:103DF0004427585FF3CF469537952795A795F04010
:103E00005395C9F77EF41F16BA0B620B730B840B24
:103E1000BAF09150A1F0FF0FBB1F661F771F881FDC
:103E2000C2F70EC0BA0F621F731F841F48F4879534
:103E300077956795B795F7959E3F08F0B0CF939526
:103E4000880F08F09927EE0F9795879508950E949F
:103E50003B1F0C94191E0E94121E58F00E940B1E4C
:103E600040F029F45F3F29F00C94021E51110C948C
:103E70004D1E0C94081E0E942A1E68F39923B1F36C
:103E8000552391F3951B550BBB27AA276217730780
:103E9000840738F09F5F5F4F220F331F441FAA1F14
:103EA000A9F335D00E2E3AF0E0E832D091505040D0
:103EB000E695001CCAF72BD0FE2F29D0660F771F7E
:103EC000881FBB1F261737074807AB07B0E809F064
:103ED000BB0B802DBF01FF2793585F4F3AF09E3FE9
:103EE000510578F00C94021E0C944D1E5F3FE4F3D4
:103EF000983ED4F3869577956795B795F7959F5F2C
:103F0000C9F7880F911D9695879597F90895E1E077
:103F1000660F771F881FBB1F621773078407BA07D6
:103F200020F0621B730B840BBA0BEE1F88F7E09531
:103F300008950E94A01F6894B1110C944D1E08951D
:103F40000E94321E88F09F5798F0B92F9927B751D9
:103F5000B0F0E1F0660F771F881F991F1AF0BA952D
:103F6000C9F714C0B13091F00E944C1EB1E0089521
:103F70000C944C1E672F782F8827B85F39F0B93F13
:103F8000CCF3869577956795B395D9F73EF49095E0
:103F90008095709561957F4F8F4F9F4F08950E9438
:103FA000711D08F48FEF089519F416F40C94081E8F
:103FB0000C941F200E94321EB8F39923C9F3B6F364
:103FC0009F57550B87FF0E942D200024A0E640EA52
:103FD000900180585695979528F4805C660F771F5E
:103FE000881F20F026173707480730F4621B730B31
:103FF000840B202931294A2BA69517940794202554
:1040000031254A2758F7660F771F881F20F026179B
:104010003707480730F4620B730B840B200D311DFA
:10402000411DA09581F7B901842F9158880F96956D
:10403000879508950E94711D880B990B08959F3FE5
:1040400031F0915020F4879577956795B795880F53
:10405000911D9695879597F9089591505040660F58
:10406000771F881FD2F70895DB018F939F930E94DB
:10407000691EBF91AF91A29F800D911DA39F900DCE
:10408000B29F900D11240895A1E21A2EAA1BBB1B0A
:10409000FD010DC0AA1FBB1FEE1FFF1FA217B30714
:1040A000E407F50720F0A21BB30BE40BF50B661F2A
:1040B000771F881F991F1A9469F7609570958095EE
:1040C00090959B01AC01BD01CF010895052E97FB92
:1040D0001EF400940E947D2057FD07D00E944420CA
:1040E00007FC03D04EF40C947D20509540953095FC
:1040F00021953F4F4F4F5F4F089590958095709554
:1041000061957F4F8F4F9F4F08950E94AB1E3323C1
:1041100012F48A1B9B0B0C948F200E94AB1EB7FFDE
:104120000895821B930B0895B7FF0C94691E0E949B
:10413000691E821B930B0895EE0FFF1F0590F491EB
:10414000E02D09940F931F93CF93DF938230910555
:1041500010F482E090E0E0914E04F0914F0430E0E2
:1041600020E0B0E0A0E0309799F42115310509F482
:104170004AC0281B390B24303105D8F58A819B8130
:104180006115710589F1FB0193838283FE0111C0E2
:10419000408151810281138148175907E0F0481787
:1041A000590799F4109761F012960C931297139691
:1041B0001C933296CF01DF91CF911F910F910895FB
:1041C00000934E0410934F04F4CF2115310551F0A4
:1041D0004217530738F0A901DB019A01BD01DF0145
:1041E000F801C1CFEF01F9CF90934F0480934E04B3
:1041F000CDCFFE01E20FF31F81939193225031093D
:1042000039832883D7CF20914C0430914D04232B40
:1042100041F4209102013091030130934D04209329
:104220004C0420910001309101012115310541F428
:104230002DB73EB74091040150910501241B350B69
:10424000E0914C04F0914D04E217F307A0F42E1B0B
:104250003F0B2817390778F0AC014E5F5F4F2417EA
:10426000350748F04E0F5F1F50934D0440934C04A8
:10427000819391939FCFF0E0E0E09CCFCF93DF93C9
:104280000097E9F0FC01329713821282A0914E044C
:10429000B0914F04ED0130E020E01097A1F42081AF
:1042A0003181820F931F20914C0430914D042817C7
:1042B000390709F061C0F0934D04E0934C04DF919D
:1042C000CF910895EA01CE17DF07E8F54A815B81B7
:1042D0009E0141155105B1F7E901FB83EA8349913C
:1042E0005991C40FD51FEC17FD0761F480819181AE
:1042F0000296840F951FE9019983888382819381B7
:104300009B838A83F0E0E0E012968D919C91139755
:104310000097B9F52D913C911197CD010296820F2E
:10432000931F20914C0430914D042817390739F61A
:10433000309751F510924F0410924E04B0934D04F3
:10434000A0934C04BCCFD383C28340815181840F9E
:10435000951FC817D90761F44E5F5F4F8881998117
:10436000480F591F518340838A819B8193838283A5
:104370002115310509F0B0CFF0934F04E0934E04BE
:104380009ECFFD01DC01C0CF13821282D7CFB0E0F7
:10439000A0E0EDECF1E20C94761E8C01009751F454
:1043A000CB010E94A2208C01C801CDB7DEB7E0E1AD
:1043B0000C94921EFC01E60FF71F9C01225031095C
:1043C000E217F30708F49DC0D901CD91DC91119754
:1043D000C617D70798F0C530D10530F3CE01049742
:1043E0008617970708F3C61BD70B2297C193D19363
:1043F0006D937C93CF010E943E21D6CF5B01AC1A16
:10440000BD0A4C018C0E9D1EA0914E04B0914F042C
:10441000512C412CF12CE12C109731F580914C045A
:1044200090914D048815990509F05CC04616570611
:1044300008F058C08091000190910101009741F46B
:104440008DB79EB74091040150910501841B950BD7
:10445000E817F90708F055C0F0934D04E0934C04B9
:10446000F90171836083A0CF8D919C911197129671
:104470006C90129713967C901397A815B90559F56F
:104480006C0142E0C40ED11CCA14DB0420F1AC0163
:104490004A195B09DA011296159780F062827382DD
:1044A00051834083D9016D937C93E114F10471F041
:1044B000D7011396FC93EE93129776CF22968C0F2A
:1044C0009D1FF90191838083F301EFCFF0934F0497
:1044D000E0934E0469CF4816590608F42C017D017B
:1044E000D3019ACFCB010E94A2207C01009749F012
:1044F000AE01B8010E948422C8010E943E218701BA
:1045000053CF10E000E050CFFB01DC0102C001906E
:104510000D9241505040D8F70895FB01DC01019005
:0C4520000D920020E1F70895F894FFCF01
:10452C000000500480000000400014005400000003
:10453C0000000A07F206A211000000001607AE11D7
:10454C0000000000F306A4110000000057080E0440
:10455C00EF06EE0600000000BA060E04EF06EE06AB
:10456C00ED06A01100000000200F5011000000000B
:10457C00710AD1065A1100000000D2060E04EF0693
:10458C00EE065C11961100000000EA11C007B01194
:10459C0000000000E9010E048A013602BB019901FA
:1045AC00AD0100000000DF05B205EF068805AB0584
:1045BC0098058905000000006007970774076307DA
:1045CC004C63644B65797061643A3A73657442610B
:1045DC00636B4C69676874436F6E74726F6C2C20DC
:1045EC0069734C63644261636B4C696768744F6EAA
:1045FC003D31000D0A004C63644B65797061643A7F
:10460C003A7365744261636B4C69676874436F6E8F
:10461C0074726F6C2C2069734C63644261636B4CD5
:10462C00696768744F6E3D30005374617274004357
:10463C006F6E6669670054657374696E67004578C0
:10464C0069740054656D70657261747572650044AF
:10465C006576696174696F6E0053706565640042BC
:10466C0054303030204454303020534D30300048DA
:10467C00003C2D00537461727420546573740045B2
:10468C006E642054657374202020200050657420C3
:10469C0050756C6C2053797374656D006E616E008F
:0846AC00696E66006F7666007E
:00000001FF
